:100000000C946A000C9492000C9492000C94920050
:100010000C9492000C9492000C9492000C94920018
:100020000C9492000C9492000C9492000C94920008
:100030000C9492000C9492000C9492000C949200F8
:100040000C94C0130C9492000C9406030C94E002E0
:100050000C9492000C9492000C9492000C949200D8
:100060000C9438030C9492007C3C3E5E2B3D3F2F59
:100070005B5D3B2C2A225C0000000000240027006E
:100080002A0000000000250028002B0000000000CE
:1000900023002600290004040404040404040202CA
:1000A00002020202030303030303010204081020F7
:1000B0004080010204081020010204081020000002
:1000C0000008000201000003040700000000000017
:1000D0000000CF1811241FBECFEFD8E0DEBFCDBF88
:1000E00011E0A0E0B1E0ECEEF5E302C005900D9266
:1000F000A43FB107D9F725E0A4EFB1E001C01D92FC
:10010000A73EB207E1F710E0CAE6D0E004C02197AD
:10011000FE010E947419C936D107C9F70E940A145A
:100120000C94F41A0C940000CF92DF92EF92FF929D
:100130000F931F93CF93DF936C017A018B01C0E083
:10014000D0E0CE15DF0581F0D8016D918D01D6018B
:10015000ED91FC910190F081E02DC6010995892B6C
:1001600011F02196EECF7E01C701DF91CF911F9153
:100170000F91FF90EF90DF90CF900895FC01538D89
:10018000448D252F30E0842F90E0821B930B541771
:1001900010F0CF96089501970895FC01918D828DFE
:1001A000981761F0828DDF01A80FB11D5D968C91CB
:1001B000928D9F5F9F73928F90E008958FEF9FEFD6
:1001C0000895FC01918D828D981731F0828DE80F92
:1001D000F11D858D90E008958FEF9FEF0895FC014C
:1001E000918D228D892F90E0805C9F4F821B910919
:1001F0008F739927089585E694E00E94EF0021E02F
:10020000892B09F420E0822F0895FC01848DDF0101
:10021000A80FB11DA35ABF4F2C91848D90E0019679
:100220008F739927848FA689B7892C93A089B18968
:100230008C91837080648C93938D848D981306C009
:100240000288F389E02D80818F7D80830895EF926D
:10025000FF920F931F93CF93DF93EC0181E0888F80
:100260009B8D8C8D981305C0E889F989808185FD67
:1002700026C0F62E0B8D10E00F5F1F4F0F73112756
:10028000E02E8C8DE8120CC00FB607FCFACFE8897F
:10029000F989808185FFF5CFCE010E940501F1CF5C
:1002A0008B8DFE01E80FF11DE35AFF4FF0829FB7DF
:1002B000F8940B8FEA89FB89808180620AC09FB71E
:1002C000F894EE89FF896083E889F98980818370D9
:1002D000806480839FBF81E090E0DF91CF911F9188
:1002E0000F91FF90EF900895CF93DF93EC01888DED
:1002F0008823C9F0EA89FB89808185FD05C0A8892A
:10030000B9898C9186FD0FC00FB607FCF5CF8081AF
:1003100085FFF2CFA889B9898C9185FFEDCFCE01F9
:100320000E940501E7CFDF91CF91089580E090E032
:10033000892B29F00E94FB0081110C940000089584
:1003400085ED8093BC008091BC0084FDFCCF1092B1
:10035000B305089540913D02262F30E0240F311D52
:1003600021323105DCF42091B3052430C9F4FC01BD
:1003700080E090E0861758F430913D022191DC0135
:10038000A55EBD4FA30FB11D2C930196F3CF8091B5
:100390003D02680F60933D0280E0089581E008957A
:1003A00082E00895089508950895E0911A028091D9
:1003B0001902E81730F4F0E0E750FE4F808190E03A
:1003C00008958FEF9FEF089590911A02809119027E
:1003D000981750F4E92FF0E0E750FE4F208130E00D
:1003E0009F5F90931A0202C02FEF3FEFC90108955B
:1003F0008091190290E020911A02821B91090895C0
:10040000CF92DF92EF92FF920F931F93CF93DF93E0
:100410007C01CB018A012091B405222389F0EB01F4
:100420006B01C40ED51ECC15DD0569F06991D701AD
:10043000ED91FC910190F081E02DC7010995F3CF7A
:10044000642F0E94AA01C801DF91CF911F910F91E3
:10045000FF90EF90DF90CF900895CF93DF931F929E
:10046000CDB7DEB769832091B4052223D1F0209166
:10047000D705203240F021E030E0FC0133832283B5
:1004800080E090E015C08091B505E82FF0E0EA54D7
:10049000FA4F998190838F5F8093B5058093D7053C
:1004A00005C061E0CE0101960E94AA0181E090E0C2
:1004B0000F90DF91CF91089521E001C0220F6A953E
:1004C000EAF7DC011C962C931C971A965C934E93CA
:1004D0001997ED91FC910484F585E02D60E0099475
:1004E000DC01ED91FC910684F785E02D41E0099552
:1004F00081E090E00895089508950E94AA1A0F934C
:100500001F93CF93DF93062F0F70423019F440E012
:10051000602F0EC0142FEC0170E084E07595679594
:100520008A95E1F7CE010E94B612412F602FCE01CD
:10053000DF91CF911F910F910C94B612FC0184852D
:100540008823A9F0218532852115310519F461111F
:1005500006C007C02130310521F4611102C0858732
:1005600001C015866585CF010E960C9491120895F1
:10057000CF93DF931F92CDB7DEB7698341E050E0A0
:10058000BE016F5F7F4F0E94F30B0F90DF91CF9101
:1005900008956115710579F0FB0101900020E9F7DC
:1005A0003197AF01461B570BDC01ED91FC910280A6
:1005B000F381E02D099480E090E008950C94C90245
:1005C0001F920F920FB60F9211242F933F934F93C8
:1005D0005F936F937F938F939F93AF93BF93EF93AB
:1005E000FF9385E694E00E940501FF91EF91BF9192
:1005F000AF919F918F917F916F915F914F913F91BB
:100600002F910F900FBE0F901F9018951F920F9271
:100610000FB60F9211242F938F939F93EF93FF9315
:10062000E0917504F09176048081E0917B04F09173
:100630007C0482FD12C0908180917E048F5F8F7355
:1006400020917F04821751F0E0917E04F0E0EB5995
:10065000FB4F958F80937E0401C08081FF91EF91C5
:100660009F918F912F910F900FBE0F901F90189513
:100670001F920F920FB60F9211242F933F934F9317
:100680005F936F937F938F939F93AF93BF93EF93FA
:10069000FF938091B900887F803609F49CC068F58B
:1006A000883209F45BC090F4803109F454C038F406
:1006B000882309F4F6C0883009F44DC0F6C08831AB
:1006C00009F44CC0803209F45DC0EFC0803409F4F5
:1006D00068C048F4803309F455C0883309F0E5C098
:1006E0008093B105D8C0803509F44FC0883509F42E
:1006F0005DC0883409F0D9C0D6C0883909F4C7C0B4
:10070000A8F4883709F467C038F4883609F463C060
:10071000803709F460C0C9C0883809F4B8C080398E
:1007200009F45FC0803809F0C0C05BC0803B09F4A9
:1007300086C038F4803A09F466C0883A09F47FC06C
:10074000B4C0803C09F4A7C0883C09F4A4C0883B2D
:1007500009F48AC0AAC080918E0510C09091B0059E
:100760008091AF05981770F5E091B00581E08E0F8C
:100770008093B005F0E0E157FA4F80818093BB0091
:1007800085EC86C08093B1058EC0E091B00581E014
:100790008E0F8093B0058091BB00F0E0E157FA4FD7
:1007A00080839091B0058091AF056EC0E091B00557
:1007B00081E08E0F8093B0058091BB00F0E0E1579F
:1007C000FA4F80838091B20581116DC081E08093E2
:1007D0008D0584EA61C083E08093B30510926102C5
:1007E000CFCF80916102803208F051C0E091610268
:1007F00081E08E0F809361028091BB00F0E0EF5B9F
:10080000FD4F8083BDCF85EC8093BC001092B30573
:1008100080916102803230F4E0916102F0E0EF5BA0
:10082000FD4F10826091610270E0E0913F02F09113
:10083000400281E492E009951092610236C084E0A2
:100840008093B30510923E0210923D02E0913B026C
:10085000F0913C02099580913D02811105C081E033
:1008600080933D0210921B02E0913E0281E08E0FC8
:1008700080933E02F0E0E55EFD4F80818093BB00F7
:1008800090913E0280913D02981708F479CF85E857
:100890008093BC000AC085EC8093BC001092B30525
:1008A00004C01092B1050E94A001FF91EF91BF9189
:1008B000AF919F918F917F916F915F914F913F91F8
:1008C0002F910F900FBE0F901F901895DC01ED91A6
:1008D000FC910684F785E02D40E0099461E00E94D8
:1008E00066048BE39FE10197F1F708950F931F933F
:1008F000CF93DF93EC01423018F08C8188608C83B9
:100900004F836887222329F0413019F48C81846059
:100910008C8364E670E080E090E00E947A136C8142
:1009200064FD31C0E881F9810684F785E02D42E05D
:1009300063E0CE0109958BE496E40197F1F7E88135
:10094000F9810684F785E02D42E063E0CE01099548
:1009500003E512E0C8010197F1F7E881F981068407
:10096000F785E02D42E063E0CE010995C8010197CB
:10097000F1F7E881F9810684F785E02D42E062E035
:10098000CE01099517C06062CE010E9466048BE417
:1009900096E40197F1F76C816062CE010E946604D3
:1009A00003E512E0C8010197F1F76C816062CE01A6
:1009B0000E946604C8010197F1F76C816062CE0164
:1009C0000E9466048BEE90E00197F1F784E08D833E
:1009D0006CE0CE010E946604CE010E946E0482E0AB
:1009E0008E8366E0CE010E946604E881F98104846A
:1009F000F585E02D6FEFCE01DF91CF911F910F9123
:100A00000994EF92FF920F931F93CF93DF93EC0122
:100A1000062FF42EE22E8B85888B10921A021092EC
:100A200019021092B5051092D7051092B30511E086
:100A30001093B20510928D0561E082E10E940F13C0
:100A400061E083E10E940F138091B9008E7F809353
:100A5000B9008091B9008D7F8093B90088E48093BC
:100A6000B80085E48093BC0082ED91E090933C0255
:100A700080933B0283ED91E09093400280933F028C
:100A800088891093B4058093D6051092B50510920D
:100A9000D7050E94351291E0811190E0998B811168
:100AA00005C082E095E00E94E4018E878989882351
:100AB00039F01F861C8260E0CE010E960E949112D2
:100AC0002E2D4F2D602FCE01DF91CF911F910F91D1
:100AD000FF90EF900C947604809164028823A9F132
:100AE0004091000150910101609102017091030158
:100AF00025E632E08091D8059091D9050E94870BB8
:100B0000811102C080E008954091F5015091F601F5
:100B10006091F7017091F80141155105610571056A
:100B200091F025E632E08091D8059091D9050E9498
:100B3000870B882339F31092F5011092F601109279
:100B4000F7011092F8011092640281E008958F92EB
:100B50009F92AF92BF92EF92FF920F931F93CF930A
:100B60004B015C01C42F8091000190910101A09183
:100B70000201B091030188159905AA05BB0501F191
:100B80000E946C05811102C080E020C085E6E82E3D
:100B900082E0F82E00E012E020E030E0B501A40190
:100BA0008091D8059091D9050E94EE09882361F3C0
:100BB0008092000190920101A0920201B092030183
:100BC00080916402C82BC093640281E0CF911F9191
:100BD0000F91FF90EF90BF90AF909F908F900895EE
:100BE0004F925F926F927F928F929F92AF92BF923D
:100BF000CF92DF92EF92FF920F931F93CF93DF93E9
:100C0000EC01423051056105710510F480E078C0B7
:100C100089859A85AB85BC850196A11DB11D841778
:100C20009507A607B70790F3CB88DC88ED88FE8888
:100C30008F89803129F4BB27A72F962F852F09C0D4
:100C4000DB01CA01E7E0B695A79597958795EA95E8
:100C5000D1F7480159012A013B01C80ED91EEA1EED
:100C6000FB1E8091000190910101A0910201B091C1
:100C70000301C816D906EA06FB0681F48F89803184
:100C8000A9F4B301A201552766277727440F551F02
:100C9000FA01EB59FD4F9182808219C040E0C701F3
:100CA000B6010E94A7058111E9CFB0CFB301A2011F
:100CB0004F77552766277727440F551F440F551F39
:100CC000FA01EB59FD4F80829182A282B38280911A
:100CD00064028160809364028A89823080F08D8111
:100CE0009E81AF81B885C80ED91EEA1EFB1EC09238
:100CF000F501D092F601E092F701F092F80181E05F
:100D0000DF91CF911F910F91FF90EF90DF90CF90E7
:100D1000BF90AF909F908F907F906F905F904F901B
:100D200008958F929F92AF92BF92CF92DF92EF92EF
:100D3000FF920F931F93CF93DF93FC0181859285E0
:100D4000A385B4850196A11DB11D84179507A6073B
:100D5000B70710F480E05BC083889488A588B688C4
:100D60008789803129F4BB27A72F962F852F09C0AB
:100D7000DB01CA01C7E0B695A79597958795CA95F7
:100D8000D1F7E9016A017B018F01BC01CD01680D3A
:100D9000791D8A1D9B1D8090000190900101A090FB
:100DA0000201B0900301681579058A059B0591F44D
:100DB000F80187898031A1F4DD24EE24FF24C601E7
:100DC000880F991FFC01EB59FD4F80819181A0E0B4
:100DD000B0E018C040E00E94A7058111E9CFBACF6A
:100DE000E894C7F8DD24EE24FF24C601880F991F7C
:100DF000880F991FFC01EB59FD4F80819181A281E1
:100E0000B381BF7088839983AA83BB8381E0DF911C
:100E1000CF911F910F91FF90EF90DF90CF90BF90F7
:100E2000AF909F908F900895DC015996ED91FC91C1
:100E30005A973097B9F083899489A589B6894285F4
:100E4000538564857585841B950BA60BB70B81159F
:100E500020E89207A105B10538F08FEF9FE7A0E0E9
:100E6000B0E0089580E090E00895CF93DF931F9263
:100E7000CDB7DEB76983DC01ED91FC910280F3818F
:100E8000E02D41E050E0BE016F5F7F4F09950F906C
:100E9000DF91CF910895089580E090E00895CF9379
:100EA000DF93EC018D81882379F18C8187FF28C045
:100EB0006E857F858889998941E00E94A7058823EE
:100EC00019F1EA8980E2E89FF0011124EB59FD4F06
:100ED0003097D1F08D81823040F48B899C89AD8927
:100EE000BE89848F958FA68FB78F8F89988DA98D96
:100EF000BA8D938F828FB58BA48B8C818F778C83E7
:100F0000DF91CF910C946C0580E0DF91CF91089533
:100F1000FC01818D928D009711F00C944F0708957C
:100F20008F929F92AF92BF92CF92DF92EF92FF92F9
:100F30000F931F93CF93DF93EC018D81811102C03A
:100F400080E078C00B891C892D893E89041715071C
:100F500026073707A8F36A017B01823029F4CA8685
:100F6000DB86EC86FD860DC0C114D104E104F104DA
:100F700051F41E821F82188619861A861B861C86CB
:100F80001D8681E057C08A849B84AC84BD84EB8D30
:100F9000FC8D258530E0275F3F4FB501A40141500E
:100FA000510961097109022E04C07695679557951C
:100FB00047950A94D2F7D701C6010197A109B10953
:100FC00004C0B695A795979587952A95D2F784176B
:100FD0009507A607B70720F089288A288B2871F47F
:100FE0004F89588D698D7A8D4E835F8368877987A5
:100FF0004C015D018E010A5F1F4F16C0841B950BCB
:10100000A60BB70BF5CF4E815F8168857985980176
:101010008B8D9C8D0E94910691E0891A9108A10800
:10102000B108882309F48CCF81149104A104B10480
:1010300051F795CFDF91CF911F910F91FF90EF90D6
:10104000DF90CF90BF90AF909F908F900895CF93F7
:10105000DF93EC010E944F07882311F01D8281E08D
:10106000DF91CF9108953F924F925F926F927F925E
:101070008F929F92AF92BF92CF92DF92EF92FF92A8
:101080000F931F93CF93DF93CDB7DEB72C970FB697
:10109000F894DEBF0FBECDBF5C01DC015B968D9086
:1010A0009C905C971696CD90DD90ED90FC901997F2
:1010B000C114D104E104F10439F0BFEFCB1ADB0A0B
:1010C000EB0AFB0A312C07C0F401C080D180E2801A
:1010D000F38033243394F40181859285A385B4850C
:1010E0009C01AD012F5F3F4F4F4F5F4F29873A87DC
:1010F0004B875C87260137011D821E821F8218865E
:10110000F40181859285A385B4852D813E814F812F
:101110005885281739074A075B0708F063C0898597
:101120009A85AB85BC858C159D05AE05BF0550F431
:1011300082E0C82ED12CE12CF12C92E0492E512CCA
:10114000612C712C9E012F5F3F4FB701A601C40196
:101150000E949106882309F445C089819A81AB8158
:10116000BC81892B8A2B8B2B41F0260137019FEF05
:10117000491A590A690A790A05C0C414D504E60453
:10118000F70491F02D813E814F8158852F5F3F4FAD
:101190004F4F5F4F2D833E834F8358873FEFC31AD6
:1011A000D30AE30AF30AACCF0FEF1FEF2FEF3FE0B4
:1011B000B301A201C4010E94F005882399F0D50172
:1011C00016964D915D916D917C9119974115510540
:1011D0006105710549F093018201C4010E94F00587
:1011E000811102C080E02AC0D50116964D925D9211
:1011F0006D927C921997332051F0D301C201019670
:10120000A11DB11DF40180839183A283B383F501F5
:101210008789908DA18DB28D892B8A2B8B2B69F4B8
:10122000D50157964D925D926D927C925A97149685
:101230008C911497806814968C9381E02C960FB64D
:10124000F894DEBF0FBECDBFDF91CF911F910F91FC
:10125000FF90EF90DF90CF90BF90AF909F908F90D6
:101260007F906F905F904F903F9008958FB7F89464
:10127000809163028FBF089561E0FC0184810E9428
:101280000F138091620281111092620208958EBD47
:1012900000000DB407FEFDCF8EB508958FEF0C94BE
:1012A00047090F931F93CF93DF93EB010E94B41371
:1012B0008B010E944E098F3F49F00E94B413601BBE
:1012C000710B6C177D07A8F380E001C081E0DF910E
:1012D000CF911F910F910895CF93DF93EC018E81F1
:1012E000882389F08F8198859C012F5F3F4F388735
:1012F0002F838230924018F40E944E09F3CFCE0122
:101300000E943C091E82DF91CF9108958CBD9DBD46
:101310000895CF93DF93EC0180916202811109C09F
:1013200081E08093620280910E0590910F050E94EA
:10133000860960E08C81DF91CF910C940F138F921E
:101340009F92AF92BF92FF920F931F93CF93DF9321
:10135000EC01F62E49015A010E946C09CE010E944F
:1013600089096CE271E0CE010E9451098F2D8064E1
:101370000E94470908E110E0D501C401002E04C015
:10138000B695A795979587950A94D2F70E94470935
:1013900008501109083F8FEF180771F7FF2029F057
:1013A00088E0F81204C087E803C085E901C08FEF28
:1013B0000E94470910E00E944E098A8787FF04C0F7
:1013C0001F3F11F01F5FF7CFDF91CF911F910F915A
:1013D000FF90BF90AF909F908F900895AF92BF9273
:1013E000CF92DF92EF92FF920F931F93CF93DF93F1
:1013F000EC016901C801820F931F8130924008F00F
:1014000070C08E81882371F088819981AA81BB8107
:1014100084179507A607B70729F48F819885C81602
:10142000D906B0F5488359836A837B838B858330E3
:1014300039F089E0440F551F661F771F8A95D1F751
:101440009A01AB0161E1CE010E949F09882319F046
:1014500083E08D8346C00E94B4135B010E944E0955
:101460008A878F3F49F40E94B4136A197B096D3251
:101470007140A0F38FE003C08E3F31F08DE08D838B
:10148000CE010E943C092DC018861F8281E08E8308
:101490008F8198858C159D0540F40E944E098F819F
:1014A0009885019698878F83F3CF6701E00EF11E30
:1014B000EC14FD0431F00E944E09F60181936F0196
:1014C000F7CF8F819885080F191F18870F8389859B
:1014D000882319F00115124048F0CE010E946C09D2
:1014E00005C0CE010E943C0980E001C081E0DF918F
:1014F000CF911F910F91FF90EF90DF90CF90BF9011
:10150000AF9008952F923F924F925F926F927F9289
:101510008F929F92AF92BF92CF92DF92EF92FF9203
:101520000F931F93CF93DF93EC016B014A018D81E1
:10153000811103C08FEF9FEFD7C08C8180FFFACF5E
:101540004B885C886D887E884A855B856C857D8547
:10155000C401A0E0B0E093018201041B150B260B2F
:10156000370B081719072A073B0718F44201841A9A
:10157000950A54011E0126E0220E311CA114B1046B
:1015800009F47EC04A855B856C857D852A0181E0F2
:101590005822ED818B8D9C8D8A019B01F9E0369557
:1015A000279517950795FA95D1F7E23061F4FC017C
:1015B000828D938DA48DB58DBC01CD01600F711FFF
:1015C000821F931F3FC0FC0174807A9470224114E3
:1015D0005104C9F4711017C0452B462B472B49F411
:1015E0008F89988DA98DBA8D8E839F83A887B9879F
:1015F0000AC04E815F816885798591010E949106BC
:10160000882309F497CFEB8DFC8D8E819F81A8856F
:10161000B9850297A109B109058404C0880F991FF3
:10162000AA1FBB1F0A94D2F7468557856089718926
:10163000840F951FA61FB71FBC01CD01670D711D3B
:10164000811D911D20E032E02419350935012A154C
:101650003B0508F439012C8126FD04C06114F2E039
:101660007F0681F400910001109101012091020197
:10167000309103016017710782079307B1F402C02C
:10168000C40132C040E00E94A705882309F452CF6C
:10169000F201EB59FD4FD601CF01860D971D8E1734
:1016A0009F0789F021912D93FACF76018301920152
:1016B000AB01BC018091D8059091D9050E94EE093B
:1016C000882309F437CFC60CD71C8A859B85AC8547
:1016D000BD85860D971DA11DB11D8A879B87AC878F
:1016E000BD87A618B7084ACFDF91CF911F910F9100
:1016F000FF90EF90DF90CF90BF90AF909F908F9032
:101700007F906F905F904F903F902F900895EF9251
:10171000FF920F931F93CF93DF93EC017901411553
:1017200051056105710511F482E13CC08B85833060
:1017300039F089E0440F551F661F771F8A95D1F74E
:101740009A01AB0168E1CE010E949F09882311F044
:1017500084E028C08EEF0E94470987018EEFF81AB7
:10176000F80181918F010E944709E016F106C1F747
:101770008FEF0E9447098FEF0E9447090E944E0990
:101780008A878F71853031F081E18D83CE010E948F
:101790003C0909C068E572E0CE010E94510981113F
:1017A00007C085E18D83CE010E943C0980E014C012
:1017B00020E030E0A9016DE0CE010E949F09811177
:1017C00009C00E944E09811105C0CE010E943C094A
:1017D00081E002C084E1E6CFDF91CF911F910F91AC
:1017E000FF90EF9008952F923F924F925F926F92E9
:1017F0007F928F929F92AF92BF92CF92DF92EF92A1
:10180000FF920F931F93CF93DF9300D000D0CDB7FB
:10181000DEB78C015B011A01DC0115968C911597DE
:101820008130C9F414968C9181FF15C082FF1DC0D0
:10183000F801438954896589768982859385A485D1
:10184000B58584179507A607B70779F0C8010E94E8
:10185000900781110AC081E090E0D80113969C9313
:101860008E93129780E090E036C1610183C05B9651
:101870008D919C915C97FC0174802FEF270D2A01BC
:101880003B0139E076946794579447943A95D1F7A1
:10189000722E74207A01F1E0FF22772009F476C0DD
:1018A00080E092E08E199F0946018C159D0508F491
:1018B0004C01D8015B962D913C915C9716968D91C9
:1018C0009D910D90BC91A02D0297A109B109F9013C
:1018D000058404C0880F991FAA1FBB1F0A94D2F762
:1018E0004685578560897189840F951FA61FB71F8C
:1018F0009C01AD01270D311D411D511D29013A01EA
:10190000811432E0930609F088C080910001909123
:101910000101A0910201B0910301481659066A061F
:101920007B0659F48FEF9FEFDC01809300019093C9
:101930000101A0930201B09303019501B301A2013B
:101940008091D8059091D9050E94870B882309F4CE
:1019500082CF9EEFB91AC818D908F80182859385FD
:10196000A485B585880D991DA11DB11D828793871A
:10197000A487B587D8011A964D915D916D917C91A0
:101980001D97C114D10409F072CF87C0E114F1048E
:1019900009F086CF16964D915D916D917C911997C6
:1019A000411551056105710559F457968D919D9129
:1019B0000D90BC91A02D0097A105B10541F521C066
:1019C0009E012F5F3F4F0E949106882309F44BCF61
:1019D00089819A81AB81BC81F801238D348DF90115
:1019E0002789203129F048EF5FEF6FEF7FE004C0D7
:1019F00048EF5FEF60E070E084179507A607B70730
:101A000030F0C8010E94330881114ACF24CFF80179
:101A100086839783A087B18743CFE114F10429F52A
:101A2000D8011A964D915D916D917C911D975396B9
:101A30008D919D910D90BC91A02D481759076A0773
:101A40007B0798F00E946C05882309F404CF40922C
:101A50000001509201016092020170920301809195
:101A6000640281608093640208C041E0C301B20156
:101A70000E94A705882309F4EECED501F701EB59A2
:101A8000FD4F9F01280D391D2E173F0719F08D912D
:101A90008193FACFA80CB91C5ECFF8018389948991
:101AA000A589B68984179507A607B70738F4438B2D
:101AB000548B658B768B848180688483F801848164
:101AC00083FD02C0C10107C0C8010E944F078823DF
:101AD00009F4C1CEF7CF0F900F900F900F90DF91C8
:101AE000CF911F910F91FF90EF90DF90CF90BF901B
:101AF000AF909F908F907F906F905F904F903F90AE
:101B00002F900895CF93DF93EC01898D9A8D0097E4
:101B100039F481E090E09B838A8380E090E00BC001
:101B2000FC01138212820E94F30BE98DFA8D22814F
:101B30003381232B71F7DF91CF910895FC01DB01F5
:101B400012968D919C9113979383828380E691E006
:101B50009183808314968C911497848315968C912D
:101B60001597858316964D915D916D917C9119978E
:101B700046835783608771871A964D915D916D9169
:101B80007C911D9742875387648775871E964D9178
:101B90005D916D917C91519746875787608B718BD2
:101BA00052968C915297828B53964D915D916D9187
:101BB0007C915697438B548B658B768B57964D91C2
:101BC0005D916D917C915A97478B508F618F728F89
:101BD0005B968D919C915C97948F838F0895FC0107
:101BE0001382128288EE93E0A0E0B0E084839583B4
:101BF000A683B78388E191E091838083128E118E52
:101C000014860895CF93DF931F92CDB7DEB741E0DE
:101C100050E0BE016F5F7F4F0E94820A019719F466
:101C2000898190E002C08FEF9FEF0F90DF91CF91FD
:101C30000895FC01818D928D009711F00C94020E95
:101C40008FEF9FEF08950F931F93CF93DF93FC01C6
:101C5000818D928D0097B9F0EF010E94020E8C01E8
:101C60000F3F8FEF180791F0898D9A8DFC01428507
:101C700053856485758541505109610971090E9438
:101C80009007C80105C080E090E002C08FEF9FEF91
:101C9000DF91CF911F910F9108954F925F926F92B4
:101CA0007F92AF92BF92CF92DF92EF92FF920F930B
:101CB0001F93CF93DF9300D000D0CDB7DEB78C0158
:101CC00049835A836B837C835901C12CD12C7601C3
:101CD000412C82E0582E612C712C49815A816B81F4
:101CE0007C819E012F5F3F4FC8010E94910688238F
:101CF00051F1D301C201F801058404C0880F991F76
:101D0000AA1FBB1F0A94D2F7C80ED91EEA1EFB1EDB
:101D100049815A816B817C818789803129F088EFE4
:101D20009FEFAFEFBFE004C088EF9FEFA0E0B0E00F
:101D3000481759076A077B0780F2F501C082D182F4
:101D4000E282F38281E00F900F900F900F90DF916D
:101D5000CF911F910F91FF90EF90DF90CF90BF90A8
:101D6000AF907F906F905F904F900895CF93DF93E7
:101D7000EC0180E2689FF0011124EB59FD4F6A8B62
:101D80008091000190910101A0910201B0910301A5
:101D90008E879F87A88BB98B4489558960E070E056
:101DA000BA0155274427828D938DA0E0B0E0482BDF
:101DB000592B6A2B7B2B4F8B588F698F7A8F83859A
:101DC000887151F4848D958DA68DB78D8B8B9C8BEE
:101DD000AD8BBE8B81E00EC0803111F080E015C06C
:101DE0009E012D5E3F4F8B8D9C8D0E944D0E882352
:101DF000A9F384E08D8381E08C831E821F82188684
:101E000019861A861B861C861D86DF91CF91089540
:101E1000CF93DF93CDB7DEB728970FB6F894DEBF28
:101E20000FBECDBF80910A0190910B01A0910C01D2
:101E3000B0910D018D839E83AF83B88780910E0191
:101E400090910F01A0911001B091110189839A83A3
:101E5000AB83BC8320917B05223018F48FEF820F77
:101E600001C081E030917C0590E0FE01E80FF91F90
:101E7000303121F4243011F4618101C06581606842
:101E800084E795E028960FB6F894DEBF0FBECDBF6D
:101E9000DF91CF910C946604EF92FF920F931F9302
:101EA000CF93DF93EC017B018A011B821A8288EEBB
:101EB00093E0A0E0B0E08C839D83AE83BF8388E194
:101EC00091E0998388838DE190E00E9489199A8F2F
:101ED000898F009779F02DE1F701DC0101900D92D7
:101EE0002A95E1F74CE050E0B801CE010C960E9433
:101EF000E21A188EDF91CF911F910F91FF90EF9012
:101F00000895AF92BF92CF92DF92EF92FF920F931C
:101F10001F93CF93DF93CDB7DEB72B970FB6F8940F
:101F2000DEBF0FBECDBF6C01FE013196CE010C9617
:101F30007F0120E22193E817F907E1F7DA0120E0B9
:101F400037E09D91992331F19E3231F43A3009F412
:101F5000AAC028E03AE0F5CFE8E6F0E084918823D3
:101F600021F031969813FACF9EC0321708F49BC027
:101F70008FED890F8E3508F096C081E0820FF70152
:101F8000E20FF11D2FE9290F2A3108F490529083B6
:101F9000282FD7CF8981803209F485C08B01FB01BE
:101FA000838D948DF601948F838FFB0116821782A7
:101FB000108611861286138614861586B12CF801B8
:101FC00082859385A485B5854389548965897689F9
:101FD00084179507A607B70708F065C025E0B695F2
:101FE000A795979587952A95D1F7F82FFF70AF2E73
:101FF000F8018581823008F456C0C8010E94020EA3
:1020000097FD51C0F80182859385A485B5854F96CB
:10201000A11DB11D82879387A487B587F0E2AF9E8B
:10202000B00111246B597D4F61157105E1F1FB0180
:1020300080818823F1F0853E99F14BE050E0C701A3
:102040000E94C31A892B09F0BACF6A2DC6012B96BC
:102050000FB6F894DEBF0FBECDBFDF91CF911F91B9
:102060000F91FF90EF90DF90CF90BF90AF900C94C6
:10207000B60EB11018C0F601A28A809100019091AD
:102080000101A0910201B091030186879787A08B7F
:10209000B18BFB018081882331F0BB24B3948FCFB7
:1020A000B110FBCFE8CF80E02B960FB6F894DEBFDF
:1020B0000FBECDBFDF91CF911F910F91FF90EF9099
:1020C000DF90CF90BF90AF900895CF93DF93FC0146
:1020D0002581222311F080E049C0EC018091330575
:1020E0008031C1F482E08583178A108E118E128EA2
:1020F0008091340590913505A0E0B0E025E0880F8F
:10210000991FAA1FBB1F2A95D1F7838B948BA58B90
:10211000B68B19C08032F9F683E08583409136058D
:10212000509137056091380570913905478B508F74
:10213000618F728F9F012D5E3F4F8CE195E00E9471
:102140004D0E882341F28CE195E09C8F8B8F81E0CE
:102150008C831E821F82188619861A861B861C860F
:102160001D861E861F86188A198A1A8ADF91CF91CA
:102170000895833081F028F4813099F08230A1F005
:1021800008958730A9F08830B9F08430D1F4809177
:1021900080008F7D03C0809180008F7780938000C6
:1021A000089584B58F7702C084B58F7D84BD08956E
:1021B0008091B0008F7703C08091B0008F7D8093B5
:1021C000B00008953FB7F8948091DF059091E00545
:1021D000A091E105B091E20526B5A89B05C02F3F6F
:1021E00019F00196A11DB11D3FBFBA2FA92F982F3D
:1021F0008827820F911DA11DB11DBC01CD0142E0B8
:10220000660F771F881F991F4A95D1F708958F92FF
:102210009F92AF92BF92CF92DF92EF92FF92CF93B5
:10222000DF93C82F80E195E09093D9058093D8057E
:10223000CC2369F1C53010F080E00CC140E060E0D3
:1022400070E0CB010E94A7058823B1F320E1C29F73
:10225000C00111248B5A9D4FFC01E254FE4F208196
:102260002F7751F73C9640815181628173814436CA
:1022700051056105710500F33497C080D180E2807B
:10228000F380C114D104E104F10421F4D5CFC12CB1
:10229000D12C760140E0C701B6010E94A705882332
:1022A00059F280917002909171028115924021F64D
:1022B000A0917502AA2309F4BFCF609173027091B7
:1022C00074026115710509F4B7CF209172022223BF
:1022D00009F4B2CFA0932E052093200580E030E0D2
:1022E00041E050E0C82FFA01082E02C0EE0FFF1F98
:1022F0000A94E2F72E173F0739F08F5FC83091F745
:1023000089E08093290598CF8093290520917B024D
:1023100030917C022115310519F040E050E008C0F1
:102320002091890230918A0240918B0250918C0257
:1023300020932105309322054093230550932405D3
:1023400046015701860E971EA11CB11C80922F05D5
:1023500090923005A0923105B0923205E09176025C
:10236000F0917702F0933505E0933405B0E00E94D8
:102370006919860E971EA81EB91E80923605909286
:102380003705A0923805B092390585E0EE0FFF1FA2
:102390008A95E1F7E150FE4FEF2FFF27E6958E0E6D
:1023A0009F1EA11CB11C80922A0590922B05A09221
:1023B0002C05B0922D0520917802309179022115DB
:1023C000310521F0A90160E070E008C0409185026C
:1023D000509186026091870270918802D701C601F0
:1023E00088199909AA09BB09840F951FA61FB71F51
:1023F00004C0B695A79597958795CA95D2F780930F
:10240000250590932605A0932705B0932805853FC1
:102410002FE09207A105B10510F48CE018C0853FAC
:102420009F4FA105B10510F480E111C08091910288
:1024300090919202A0919302B091940280933605FC
:1024400090933705A0933805B093390580E28093C7
:10245000330581E0DF91CF91FF90EF90DF90CF9037
:10246000BF90AF909F908F9008953091D7053132F3
:1024700008F04BC08091B3058111FCCF9091D60537
:1024800022E02093B30521E02093B2052FEF2093A3
:10249000B1051092B0053093AF05E6EBF5E0AFE87B
:1024A000B5E020E0321721F041914D932F5FFACF34
:1024B00010928E0520918E05990F922B90938E0588
:1024C00090918D05913061F410928D0590918E055B
:1024D0009093BB009091BC0093FDF8CF95EC01C0A8
:1024E00095EE9093BC009091B3059230E1F39091FA
:1024F000B1059F3F79F08091B105803241F0809124
:10250000B105803331F084E005C081E003C082E092
:1025100001C083E01092B5051092D7051092B40562
:102520000895FC0183818823C1F0962F6181609515
:1025300069236083828191E09093B4058093D605EE
:102540001092B5051092D70582E095E00E942D0209
:102550000E943512282F30E002C020E030E081E0F8
:1025600090E0232B11F080E090E00895EF92FF922D
:102570000F931F93CF938C01FC0184E0C0E060FFB8
:1025800002C09589C92B6695815031968111F7CF8C
:10259000413011F4F8014489F8018585C82BC42B1A
:1025A0007801FEE0EF0EF11CF80162896C2BC70187
:1025B0000E949112F801628960956C23C701CF9146
:1025C0001F910F91FF90EF900C949112CF93DF9396
:1025D000282F30E0F901E254FF4F8491F901E655CC
:1025E000FF4FD491F901EA56FF4FC491CC2391F0EB
:1025F00081110E94B910EC2FF0E0EE0FFF1FE4579D
:10260000FF4FA591B491EC91ED2381E090E021F48E
:1026100080E002C080E090E0DF91CF9108951F93A9
:10262000CF93DF93282F30E0F901E254FF4F8491DC
:10263000F901E655FF4FD491F901EA56FF4FC491D5
:10264000CC23C1F0162F81110E94B910EC2FF0E0BD
:10265000EE0FFF1FEE57FF4FA591B4919FB7F8946F
:10266000111104C08C91D095D82302C0EC91DE2BBF
:10267000DC939FBFDF91CF911F910895CF93DF939C
:1026800090E0FC01E655FF4F2491FC01EA56FF4F14
:102690008491882361F190E0880F991FFC01E8582C
:1026A000FF4FC591D491FC01EE57FF4FA591B49116
:1026B000611109C09FB7F89488812095822388838F
:1026C000EC912E230BC0623061F49FB7F89488819F
:1026D000322F309583238883EC912E2B2C939FBF30
:1026E00006C08FB7F894E8812E2B28838FBFDF9127
:1026F000CF9108958F929F92AF92BF92CF92DF9227
:10270000EF92FF926B017C010E94E2104B015C0191
:10271000C114D104E104F104F1F00E94E210DC01E3
:10272000CB0188199909AA09BB09883E9340A105E4
:10273000B10570F321E0C21AD108E108F10888EE72
:10274000880E83E0981EA11CB11CC114D104E104C1
:10275000F10419F7DDCFFF90EF90DF90CF90BF909D
:10276000AF909F908F9008952FB7F8946091DB05FC
:102770007091DC058091DD059091DE052FBF0895F5
:102780001F920F920FB60F9211242F933F938F93A6
:102790009F93AF93BF938091DB059091DC05A0914F
:1027A000DD05B091DE053091DA0523E0230F2D37EA
:1027B00020F40196A11DB11D05C026E8230F029645
:1027C000A11DB11D2093DA058093DB059093DC05F4
:1027D000A093DD05B093DE058091DF059091E005C3
:1027E000A091E105B091E2050196A11DB11D809374
:1027F000DF059093E005A093E105B093E205BF915A
:10280000AF919F918F913F912F910F900FBE0F909D
:102810001F901895CF93DF93CDB7DEB7C558D10978
:102820000FB6F894DEBF0FBECDBF789484B582603A
:1028300084BD84B5816084BD85B5826085BD85B564
:10284000816085BD80916E00816080936E001092E2
:10285000810080918100826080938100809181005D
:1028600081608093810080918000816080938000EE
:102870008091B10084608093B1008091B00081604C
:102880008093B00080917A00846080937A00809178
:102890007A00826080937A0080917A0081608093D0
:1028A0007A0080917A00806880937A001092C1004B
:1028B00062E082E00E943E1362E083E00E943E13E9
:1028C00020E042E060E184E795E00E94010540E0FD
:1028D00050E063E084E795E00E945C0261E084E7F9
:1028E00095E00E949E0262E084E795E00E94660403
:1028F0008BE39FE10197F1F7E0917504F091760485
:1029000082E08083E0917104F09172041082E09182
:102910007304F09174048FEC808310927D04E09135
:102920007904F0917A0486E08083E0917704F09155
:102930007804808180618083E0917704F09178044D
:10294000808188608083E0917704F09178048081B1
:1029500080688083E0917704F091780480818F7D96
:1029600080836AE871E085E694E00E94DE0280914F
:102970003F05882321F08AE395E00E942708109202
:102980001B0510921905109216051092150584E08A
:10299000809314050E94B4138B0161E080911405AB
:1029A0000E943E1361E0809114050E940F13FFB650
:1029B000F8948091F401811127C0E0EAF0E084915D
:1029C000E4EBF0E09491E82FF0E0EE0FFF1FE85801
:1029D000FF4FA591B491EC91E92321F461E08AE0E5
:1029E0000E940F1361E08AE00E943E138CB5806163
:1029F0008CBD8CB580648CBD61E08DE00E943E137F
:102A000061E08BE00E943E138091F4018F5F809320
:102A1000F401FFBE82E580930E0510920F058091B0
:102A20000E0590910F050E9486097AE0F72E8FEF30
:102A30000E944709FA94F110FACF80E195E00E94D4
:102A4000890920E030E0A90160E080E195E00E9482
:102A50009F09F82E80931A0581E0F81649F00E942C
:102A6000B413601B710B613D774058F381E056C091
:102A70002AEA31E040E050E068E080E195E00E9421
:102A80009F0982FF03C0F0921B0510C064E0F62E80
:102A90000E944E0980931A05FA94F110F9CF8A3AF0
:102AA00011F082E03BC082E080931B0580911B0502
:102AB000823031F4C12CD12CE12C50E4F52E03C02E
:102AC000C12CD12C760120E030E0A90167E380E140
:102AD00095E00E949F09A701960169E280E195E0D7
:102AE0000E949F0980931A05882349F00E94B4131D
:102AF000601B710B613D774030F388E00FC080911F
:102B00001B05823001F520E030E0A9016AE380E195
:102B100095E00E949F09882341F086E08093150587
:102B200080E195E00E943C0928C00E944E09807C0B
:102B3000803C19F483E080931B050E944E090E949B
:102B40004E090E944E0980E195E00E943C0980E513
:102B500080930E0510920F0581E00E9407118823D3
:102B600039F08AE395E00E946510882331F012C0A5
:102B700080E00E9407118111F4CF63EA71E085E6DD
:102B800094E00E94C90266EB71E085E694E00E9441
:102B9000C902FFCF69EB71E085E694E00E94C902AB
:102BA00066EB71E085E694E00E94C9021DA21CA2BA
:102BB00080E691E09BA38AA31FA21C821B829A83BA
:102BC00089831E828E010E5D1F4FC8010E94651011
:102BD000CE0101966C01280148E8842E41E0942E34
:102BE000F82EED2C6FE270E0C4010E94D01A00971D
:102BF00009F445C0F40120812F3221F4FFEF8F1A30
:102C00009F0AF0CF88198D3008F08CE0A82EB12CE7
:102C1000A501B401CE01845A9F4F0E94E21AECE54F
:102C2000F0E0EC0FFD1FEA0DFB1D1082C6010E94B3
:102C30002708F6018581882371F023961FAE1EAE0A
:102C4000239780E691E021969FAF8EAF219725963E
:102C50001FAE25971DC0AE01445A5F4FB201C60199
:102C60000E94810F882349F38A0C9B1CC2010E9499
:102C70002708942D852D2601C92ED82EB3CFC40147
:102C8000885891403C01B201CE01CF960E949E0D22
:102C9000F301E857FE4F3F01808181110AC0BE0158
:102CA000615C7F4F8F2D9E2D0E949E0D48E851E064
:102CB00025C01DA21CA280E691E09BA38AA31FA2AF
:102CC00025968FAD2597811106C0CE01845A9F4F5E
:102CD0000E94EF0D1AC0AF01BE01615C7F4FC801B9
:102CE0000E94810F882389F3CE01CF960E94270886
:102CF000B8018F2D9E2D0E949E0DA3016F2D7E2D5C
:102D0000CE01845A9F4F0E944C0FA0968EAD9FAD6E
:102D1000A09790935C0580935B05A4968CAD9DADC8
:102D2000AEADBFADA49780935D0590935E05A09373
:102D30005F05B0936005A8968CAD9DADAEADBFADFF
:102D4000A8978093610590936205A0936305B09363
:102D50006405ACE5B0E0AC0FBD1F1C96E5E6F5E000
:102D60008D91819385E0E237F807D1F7E796CEACF5
:102D7000DFACE797D0927305C09272053AE0432E1C
:102D8000512C612C712C84E795E00E946E0463ED58
:102D900071E084E795E00E94DE02F60185818230D1
:102DA00008F4F7C182859385A485B5858F7199272D
:102DB000AA27BB27892B8A2B8B2B09F0EAC140E27B
:102DC00050E06F2D7E2DC6010E94820A803209F0EC
:102DD000E0C18981882309F4DCC1853E81F38E320C
:102DE00071F38C8583FDEBCF23961FAE1EAE239728
:102DF00080E691E021969FAF8EAF219725961FAE7A
:102E00002597EF2DFE2D80E090E03EE221912032CB
:102E100091F0983041F4A7E7B0E0AC0FBD1FA80FC8
:102E2000B11D3C938F5FA7E7B0E0AC0FBD1FA80FAB
:102E3000B11D2C938F5F9F5F9B3041F7E7E7F0E078
:102E4000EC0FFD1FE80FF11D1082AE0149585F4FD6
:102E5000B601CE01CF960E94810F882309F499C153
:102E6000BE01615C7F4FC8010E949E0DAE014958B2
:102E70005F4FB801CE01845A9F4F0E944C0FE796D6
:102E8000EEADFFADE797309719F08581811113C042
:102E9000C114D10409F477CFF6018581823008F49A
:102EA00072CFF6011682178210861186128613865B
:102EB0001486158668CF823008F065CF0E94080F0F
:102EC00061EE71E084E795E00E94DE020E94080F47
:102ED00062EF71E084E795E00E94DE026CE570E04D
:102EE0006C0F7D1F645F7F4F84E795E00E94DE02D8
:102EF00060EF71E084E795E00E94DE02E796EEADB8
:102F0000FFADE797309729F02389348945895689A1
:102F100003C020E030E0A90119A25E01F1E2AF0E8A
:102F2000B11CCA01B901A30192010E944719605D59
:102F3000F50162935F01211531054105510589F7BE
:102F4000BF0184E795E00E94C9026CE271E080E075
:102F500090E00E947A1382E00E94E612892B09F029
:102F600077C0E7962EAD3FADE797A0968EAD9FADAB
:102F7000A0979C838B83A4968CAD9DADAEADBFAD69
:102F8000A4978D839E83AF83B887A8968CAD9DADA3
:102F9000AEADBFADA89789879A87AB87BC8788E11C
:102FA00091E09A8389838DE0ECE5F0E0EC0FFD1F62
:102FB0003C96DE011D9601900D928A95E1F73B8FBC
:102FC0002A8F80E1E2EEF1E0DE01DF9601900D92C2
:102FD0008A95E1F780E1E2EEF1E0DE019296019060
:102FE0000D928A95E1F75E01FFE3AF0EB11C45013A
:102FF00080E1880E911CCC57DF4FA882C458D04086
:10300000CB57DF4FB882C558D0408F2D9E2D0E94E0
:103010001407892BA1F08F2D9E2D0E94190E382E9A
:10302000082E000C990B0E94BC1A892B11F420E287
:10303000322EF50131925F018E169F0631F7A12CD9
:10304000B12C8F2D9E2D0E941407892BE9F451C0BD
:1030500083E00E94E612892B09F07DCF64E670E0E0
:1030600080E090E00E947A13E7968EAD9FADE797DF
:10307000009709F488CE0E942708E7968EAD9FAD91
:10308000E7970E94211A7FCE8F2D9E2D0E94190E48
:10309000382E882E880F9908A114B104C1F4C401F8
:1030A0000E94B21A892B99F02F962FAC2F97822D60
:1030B000022C000C990B0E94B21A892B41F0FDE200
:1030C0002F96FFAF2F972AA2AA24A394B12CC40154
:1030D0000E94BC1A892B11F480E2382EC50101969A
:1030E000F801EA0DFB1D30828031910514F45C017A
:1030F000A8CF84E795E00E946E04CC57DF4F68812B
:10310000C458D040CB57DF4F7881C558D04084E7B2
:1031100095E00E94DE020E94080FB80184E795E066
:103120000E94DE026CE271E080E090E00E947A137F
:1031300082E00E94E612892B39F464E670E080E0B8
:1031400090E00E947A138ACF83E00E94E612892BD6
:1031500079F764E670E080E090E00E947A13B801AD
:10316000CC57DF4F8881C458D040CB57DF4F988170
:10317000C558D0400E94DB1A62EE71E0C8010E947F
:10318000DB1A8F2D9E2D0E941407892B09F057CF33
:1031900065CFCE01845A9F4F0E94EF0D70CEE5E6B9
:1031A000F4E01382128288EE93E0A0E0B0E0848322
:1031B0009583A683B7832AE231E03183208325EC0F
:1031C00030E03587248724EC30E03787268720ECF1
:1031D00030E0318B208B21EC30E0338B228B22ECE2
:1031E00030E0358B248B26EC30E0378B268B118E2C
:1031F000128E138E148EE2E0F5E013821282848325
:103200009583A683B7838EE491E091838083EEE07B
:10321000F5E080E580831182E0E1F5E01582168219
:103220001186138682E090E0A0E0B0E08487958765
:10323000A687B78713A215A614A680E691E093A7E8
:1032400082A717A6E4E7F5E01382128288E791E0EF
:1032500091838083108A8FEF87871686118A87E291
:103260008387148615861286118684E0828B82E01D
:10327000838B81E0848B80E1858B80E2868B80E488
:10328000878B80E8808F89E595E00C94EF0DA1E2B3
:103290001A2EAA1BBB1BFD010DC0AA1FBB1FEE1FD0
:1032A000FF1FA217B307E407F50720F0A21BB30B1B
:1032B000E40BF50B661F771F881F991F1A9469F797
:1032C00060957095809590959B01AC01BD01CF01F3
:1032D00008950E947A19A59F900DB49F900DA49F08
:1032E000800D911D11240895EE0FFF1F0590F4919C
:1032F000E02D0994A29FB001B39FC001A39F700D60
:10330000811D1124911DB29F700D811D1124911DED
:1033100008950F931F93CF93DF938230910510F49C
:1033200082E090E0E091E505F091E60520E030E0F4
:10333000A0E0B0E0309719F1408151810281138102
:1033400048175907C8F08417950769F4109731F0AA
:1033500012960C93129713961C9327C00093E505C1
:103360001093E60522C02115310519F042175307C5
:1033700018F49A01BD01EF01DF01F801DBCF21153F
:103380003105F9F0281B390B2430310580F48A818E
:103390009B816115710521F0FB019383828304C039
:1033A0009093E6058093E505FE01329644C0FE0148
:1033B000E20FF31F819391932250310939832883BF
:1033C0003AC02091E3053091E405232B41F420918C
:1033D0000601309107013093E4052093E305209125
:1033E0000401309105012115310541F42DB73EB797
:1033F0004091080150910901241B350BE091E30530
:10340000F091E405E217F307A0F42E1B3F0B2817F9
:10341000390778F0AC014E5F5F4F2417350748F04D
:103420004E0F5F1F5093E4054093E3058193919302
:1034300002C0E0E0F0E0CF01DF91CF911F910F914A
:103440000895CF93DF93009709F481C0FC01329770
:1034500013821282A091E505B091E605109781F4E0
:1034600020813181820F931F2091E3053091E40583
:103470002817390751F5F093E405E093E30567C099
:10348000ED0120E030E0CE17DF0740F44A815B8198
:103490009E0141155105F1F0EA01F5CFD383C283B6
:1034A00040815181840F951FC817D90759F488812D
:1034B0009981840F951F0296918380838A819B81D5
:1034C000938382832115310529F4F093E605E09377
:1034D000E5053DC0E901FB83EA8349915991C40F99
:1034E000D51FEC17FD0761F480819181840F951F32
:1034F0000296E90199838883828193819B838A83E1
:10350000E0E0F0E012968D919C911397009719F0EE
:10351000FD01DC01F7CF8D919C9111979D012E5FEC
:103520003F4F820F931F2091E3053091E405281748
:10353000390769F4309729F41092E6051092E505F1
:1035400002C013821282B093E405A093E305DF91D9
:10355000CF91089581E090E0F8940C94F41A85FDE1
:103560000C94F11A806291110C94F11A81568A51CF
:10357000D8F70895803209F091110C94F11A805215
:103580008F55D8F70895FB01DC0104C08D9101909F
:10359000801921F441505040C8F7881B990B0895B9
:1035A000FC018191861721F08823D9F79927089586
:1035B0003197CF010895FB01DC0101900D920020AD
:1035C000E1F70895FB01DC014150504048F00190C3
:1035D0000D920020C9F701C01D9241505040E0F704
:0C35E0000895992788270895F894FFCFDC
:1035EC00FFFFFFFF0000E70580000040145400407F
:1035FC0010500000000000003507820D4C078807B2
:10360C001407190E230E0000000027019400BE00C1
:10361C007401EF00CD00E100000000007D02940079
:10362C004C074B077D027D027D02000000002D023D
:10363C0000024C07D401F801E401D50100000000A0
:10364C00B80294004C074B07000000007D02940068
:10365C004C074B0700000000700294004C074B070E
:10366C0001055C029E027F022F00696E69636A612C
:10367C006C697A6F77616E6965206B617274792001
:10368C00534400626C616420696E69636A616C69A1
:10369C007A61636A69000D0A006B61727461205370
:1036AC0044207A61696E69636A616C697A6F7761CB
:1036BC006E61005779626965727A20706C696B3A39
:1036CC00002020202020202020202020202020200E
:0436DC0020003E008C
:00000001FF
